{
  "contractName": "VotonTokenCrowdsale",
  "abi": [
    {
      "constant": true,
      "inputs": [],
      "name": "hasClosed",
      "outputs": [
        {
          "name": "",
          "type": "bool"
        }
      ],
      "payable": false,
      "stateMutability": "view",
      "type": "function"
    },
    {
      "constant": true,
      "inputs": [],
      "name": "rate",
      "outputs": [
        {
          "name": "",
          "type": "uint256"
        }
      ],
      "payable": false,
      "stateMutability": "view",
      "type": "function"
    },
    {
      "constant": true,
      "inputs": [],
      "name": "cap",
      "outputs": [
        {
          "name": "",
          "type": "uint256"
        }
      ],
      "payable": false,
      "stateMutability": "view",
      "type": "function"
    },
    {
      "constant": true,
      "inputs": [],
      "name": "weiRaised",
      "outputs": [
        {
          "name": "",
          "type": "uint256"
        }
      ],
      "payable": false,
      "stateMutability": "view",
      "type": "function"
    },
    {
      "constant": true,
      "inputs": [
        {
          "name": "",
          "type": "address"
        }
      ],
      "name": "contributions",
      "outputs": [
        {
          "name": "",
          "type": "uint256"
        }
      ],
      "payable": false,
      "stateMutability": "view",
      "type": "function"
    },
    {
      "constant": true,
      "inputs": [],
      "name": "closingTime",
      "outputs": [
        {
          "name": "",
          "type": "uint256"
        }
      ],
      "payable": false,
      "stateMutability": "view",
      "type": "function"
    },
    {
      "constant": false,
      "inputs": [],
      "name": "finalize",
      "outputs": [],
      "payable": false,
      "stateMutability": "nonpayable",
      "type": "function"
    },
    {
      "constant": true,
      "inputs": [],
      "name": "capReached",
      "outputs": [
        {
          "name": "",
          "type": "bool"
        }
      ],
      "payable": false,
      "stateMutability": "view",
      "type": "function"
    },
    {
      "constant": true,
      "inputs": [],
      "name": "wallet",
      "outputs": [
        {
          "name": "",
          "type": "address"
        }
      ],
      "payable": false,
      "stateMutability": "view",
      "type": "function"
    },
    {
      "constant": false,
      "inputs": [],
      "name": "renounceOwnership",
      "outputs": [],
      "payable": false,
      "stateMutability": "nonpayable",
      "type": "function"
    },
    {
      "constant": true,
      "inputs": [],
      "name": "isFinalized",
      "outputs": [
        {
          "name": "",
          "type": "bool"
        }
      ],
      "payable": false,
      "stateMutability": "view",
      "type": "function"
    },
    {
      "constant": true,
      "inputs": [],
      "name": "owner",
      "outputs": [
        {
          "name": "",
          "type": "address"
        }
      ],
      "payable": false,
      "stateMutability": "view",
      "type": "function"
    },
    {
      "constant": true,
      "inputs": [],
      "name": "investorMinCap",
      "outputs": [
        {
          "name": "",
          "type": "uint256"
        }
      ],
      "payable": false,
      "stateMutability": "view",
      "type": "function"
    },
    {
      "constant": true,
      "inputs": [],
      "name": "openingTime",
      "outputs": [
        {
          "name": "",
          "type": "uint256"
        }
      ],
      "payable": false,
      "stateMutability": "view",
      "type": "function"
    },
    {
      "constant": true,
      "inputs": [],
      "name": "stage",
      "outputs": [
        {
          "name": "",
          "type": "uint256"
        }
      ],
      "payable": false,
      "stateMutability": "view",
      "type": "function"
    },
    {
      "constant": false,
      "inputs": [
        {
          "name": "_beneficiary",
          "type": "address"
        }
      ],
      "name": "buyTokens",
      "outputs": [],
      "payable": true,
      "stateMutability": "payable",
      "type": "function"
    },
    {
      "constant": true,
      "inputs": [],
      "name": "investorHardCap",
      "outputs": [
        {
          "name": "",
          "type": "uint256"
        }
      ],
      "payable": false,
      "stateMutability": "view",
      "type": "function"
    },
    {
      "constant": false,
      "inputs": [
        {
          "name": "_newOwner",
          "type": "address"
        }
      ],
      "name": "transferOwnership",
      "outputs": [],
      "payable": false,
      "stateMutability": "nonpayable",
      "type": "function"
    },
    {
      "constant": true,
      "inputs": [],
      "name": "token",
      "outputs": [
        {
          "name": "",
          "type": "address"
        }
      ],
      "payable": false,
      "stateMutability": "view",
      "type": "function"
    },
    {
      "inputs": [
        {
          "name": "_rate",
          "type": "uint256"
        },
        {
          "name": "_wallet",
          "type": "address"
        },
        {
          "name": "_token",
          "type": "address"
        },
        {
          "name": "_cap",
          "type": "uint256"
        },
        {
          "name": "_openingTime",
          "type": "uint256"
        },
        {
          "name": "_closingTime",
          "type": "uint256"
        }
      ],
      "payable": false,
      "stateMutability": "nonpayable",
      "type": "constructor"
    },
    {
      "payable": true,
      "stateMutability": "payable",
      "type": "fallback"
    },
    {
      "anonymous": false,
      "inputs": [],
      "name": "Finalized",
      "type": "event"
    },
    {
      "anonymous": false,
      "inputs": [
        {
          "indexed": true,
          "name": "purchaser",
          "type": "address"
        },
        {
          "indexed": true,
          "name": "beneficiary",
          "type": "address"
        },
        {
          "indexed": false,
          "name": "value",
          "type": "uint256"
        },
        {
          "indexed": false,
          "name": "amount",
          "type": "uint256"
        }
      ],
      "name": "TokenPurchase",
      "type": "event"
    },
    {
      "anonymous": false,
      "inputs": [
        {
          "indexed": true,
          "name": "previousOwner",
          "type": "address"
        }
      ],
      "name": "OwnershipRenounced",
      "type": "event"
    },
    {
      "anonymous": false,
      "inputs": [
        {
          "indexed": true,
          "name": "previousOwner",
          "type": "address"
        },
        {
          "indexed": true,
          "name": "newOwner",
          "type": "address"
        }
      ],
      "name": "OwnershipTransferred",
      "type": "event"
    },
    {
      "constant": true,
      "inputs": [
        {
          "name": "_beneficiary",
          "type": "address"
        }
      ],
      "name": "getUserContribution",
      "outputs": [
        {
          "name": "",
          "type": "uint256"
        }
      ],
      "payable": false,
      "stateMutability": "view",
      "type": "function"
    },
    {
      "constant": false,
      "inputs": [
        {
          "name": "_stage",
          "type": "uint256"
        }
      ],
      "name": "setCrowdsaleStage",
      "outputs": [],
      "payable": false,
      "stateMutability": "nonpayable",
      "type": "function"
    },
    {
      "constant": true,
      "inputs": [],
      "name": "getLatestPrice",
      "outputs": [
        {
          "name": "",
          "type": "uint256"
        }
      ],
      "payable": false,
      "stateMutability": "view",
      "type": "function"
    },
    {
      "constant": false,
      "inputs": [],
      "name": "publiclySetLatestPrice",
      "outputs": [],
      "payable": false,
      "stateMutability": "nonpayable",
      "type": "function"
    }
  ],
  "bytecode": "0x60806040526000600860006101000a81548160ff02191690831515021790555066b1a2bc2ec50000600955671bc16d674ec80000600a556000600c5534801561004757600080fd5b5060405160c08061178c833981018060405281019080805190602001909291908051906020019092919080519060200190929190805190602001909291908051906020019092919080519060200190929190505050818184888888336000806101000a81548173ffffffffffffffffffffffffffffffffffffffff021916908373ffffffffffffffffffffffffffffffffffffffff1602179055506000831115156100f157600080fd5b600073ffffffffffffffffffffffffffffffffffffffff168273ffffffffffffffffffffffffffffffffffffffff161415151561012d57600080fd5b600073ffffffffffffffffffffffffffffffffffffffff168173ffffffffffffffffffffffffffffffffffffffff161415151561016957600080fd5b8260038190555081600260006101000a81548173ffffffffffffffffffffffffffffffffffffffff021916908373ffffffffffffffffffffffffffffffffffffffff16021790555080600160006101000a81548173ffffffffffffffffffffffffffffffffffffffff021916908373ffffffffffffffffffffffffffffffffffffffff16021790555050505060008111151561020457600080fd5b806005819055505042821015151561021b57600080fd5b81811015151561022a57600080fd5b81600681905550806007819055505050732514895c72f50d8bd4b4f9b1110f0d6bd2c97526600d60006101000a81548173ffffffffffffffffffffffffffffffffffffffff021916908373ffffffffffffffffffffffffffffffffffffffff1602179055505050505050506114e8806102a46000396000f300608060405260043610610133576000357c0100000000000000000000000000000000000000000000000000000000900463ffffffff1680631515bc2b1461013e5780632c4e722e1461016d578063355274ea146101985780634042b66f146101c357806342e94c90146101ee5780634b6753bc146102455780634bb278f3146102705780634f93594514610287578063521eb273146102b6578063715018a61461030d5780638d4e4083146103245780638da5cb5b146103535780638e15f473146103aa578063a997f82f146103d5578063b25d7f5414610402578063b7a8807c1461042d578063bb8b2b4714610458578063c040e6b8146104af578063ec8ac4d8146104da578063ed5db87414610510578063f2fde38b1461053b578063fa2032a11461057e578063fc0c546a14610595575b61013c336105ec565b005b34801561014a57600080fd5b506101536106ba565b604051808215151515815260200191505060405180910390f35b34801561017957600080fd5b506101826106c6565b6040518082815260200191505060405180910390f35b3480156101a457600080fd5b506101ad6106cc565b6040518082815260200191505060405180910390f35b3480156101cf57600080fd5b506101d86106d2565b6040518082815260200191505060405180910390f35b3480156101fa57600080fd5b5061022f600480360381019080803573ffffffffffffffffffffffffffffffffffffffff1690602001909291905050506106d8565b6040518082815260200191505060405180910390f35b34801561025157600080fd5b5061025a6106f0565b6040518082815260200191505060405180910390f35b34801561027c57600080fd5b506102856106f6565b005b34801561029357600080fd5b5061029c6107d1565b604051808215151515815260200191505060405180910390f35b3480156102c257600080fd5b506102cb6107e0565b604051808273ffffffffffffffffffffffffffffffffffffffff1673ffffffffffffffffffffffffffffffffffffffff16815260200191505060405180910390f35b34801561031957600080fd5b50610322610806565b005b34801561033057600080fd5b50610339610908565b604051808215151515815260200191505060405180910390f35b34801561035f57600080fd5b5061036861091b565b604051808273ffffffffffffffffffffffffffffffffffffffff1673ffffffffffffffffffffffffffffffffffffffff16815260200191505060405180910390f35b3480156103b657600080fd5b506103bf610940565b6040518082815260200191505060405180910390f35b3480156103e157600080fd5b5061040060048036038101908080359060200190929190505050610a47565b005b34801561040e57600080fd5b50610417610ae5565b6040518082815260200191505060405180910390f35b34801561043957600080fd5b50610442610aeb565b6040518082815260200191505060405180910390f35b34801561046457600080fd5b50610499600480360381019080803573ffffffffffffffffffffffffffffffffffffffff169060200190929190505050610af1565b6040518082815260200191505060405180910390f35b3480156104bb57600080fd5b506104c4610b3a565b6040518082815260200191505060405180910390f35b61050e600480360381019080803573ffffffffffffffffffffffffffffffffffffffff1690602001909291905050506105ec565b005b34801561051c57600080fd5b50610525610b40565b6040518082815260200191505060405180910390f35b34801561054757600080fd5b5061057c600480360381019080803573ffffffffffffffffffffffffffffffffffffffff169060200190929190505050610b46565b005b34801561058a57600080fd5b50610593610bad565b005b3480156105a157600080fd5b506105aa610cb5565b604051808273ffffffffffffffffffffffffffffffffffffffff1673ffffffffffffffffffffffffffffffffffffffff16815260200191505060405180910390f35b6000803491506105fc8383610cdb565b61060582610db0565b905061061c82600454610dce90919063ffffffff16565b60048190555061062c8382610dea565b8273ffffffffffffffffffffffffffffffffffffffff163373ffffffffffffffffffffffffffffffffffffffff167f623b3804fa71d67900d064613da8f94b9617215ee90799290593e1745087ad188484604051808381526020018281526020019250505060405180910390a36106a38383610df8565b6106ab610dfc565b6106b58383610e67565b505050565b60006007544211905090565b60035481565b60055481565b60045481565b600b6020528060005260406000206000915090505481565b60075481565b6000809054906101000a900473ffffffffffffffffffffffffffffffffffffffff1673ffffffffffffffffffffffffffffffffffffffff163373ffffffffffffffffffffffffffffffffffffffff1614151561075157600080fd5b600860009054906101000a900460ff1615151561076d57600080fd5b6107756106ba565b151561078057600080fd5b610788610e6b565b7f6823b073d48d6e3a7d385eeb601452d680e74bb46afe3255a7d778f3a9b1768160405160405180910390a16001600860006101000a81548160ff021916908315150217905550565b60006005546004541015905090565b600260009054906101000a900473ffffffffffffffffffffffffffffffffffffffff1681565b6000809054906101000a900473ffffffffffffffffffffffffffffffffffffffff1673ffffffffffffffffffffffffffffffffffffffff163373ffffffffffffffffffffffffffffffffffffffff1614151561086157600080fd5b6000809054906101000a900473ffffffffffffffffffffffffffffffffffffffff1673ffffffffffffffffffffffffffffffffffffffff167ff8df31144d9c2f0f6b59d69b8b98abd5459d07f2742c4df920b25aae33c6482060405160405180910390a260008060006101000a81548173ffffffffffffffffffffffffffffffffffffffff021916908373ffffffffffffffffffffffffffffffffffffffff160217905550565b600860009054906101000a900460ff1681565b6000809054906101000a900473ffffffffffffffffffffffffffffffffffffffff1681565b600080600080600080600d60009054906101000a900473ffffffffffffffffffffffffffffffffffffffff1673ffffffffffffffffffffffffffffffffffffffff1663feaf968c6040518163ffffffff167c010000000000000000000000000000000000000000000000000000000002815260040160a060405180830381600087803b1580156109cf57600080fd5b505af11580156109e3573d6000803e3d6000fd5b505050506040513d60a08110156109f957600080fd5b81019080805190602001909291908051906020019092919080519060200190929190805190602001909291908051906020019092919050505094509450945094509450839550505050505090565b6000809054906101000a900473ffffffffffffffffffffffffffffffffffffffff1673ffffffffffffffffffffffffffffffffffffffff163373ffffffffffffffffffffffffffffffffffffffff16141515610aa257600080fd5b6000811415610ab8576000600c81905550610ae2565b6001811415610ace576001600c81905550610ae1565b6002811415610ae0576002600c819055505b5b5b50565b60095481565b60065481565b6000600b60008373ffffffffffffffffffffffffffffffffffffffff1673ffffffffffffffffffffffffffffffffffffffff168152602001908152602001600020549050919050565b600c5481565b600a5481565b6000809054906101000a900473ffffffffffffffffffffffffffffffffffffffff1673ffffffffffffffffffffffffffffffffffffffff163373ffffffffffffffffffffffffffffffffffffffff16141515610ba157600080fd5b610baa816110ad565b50565b6000610bb7610940565b90506000600c541415610c0c57610c016305f5e100610bf36003610be560fa866111a790919063ffffffff16565b6111df90919063ffffffff16565b6111df90919063ffffffff16565b600381905550610cb2565b6001600c541415610c6057610c556305f5e100610c476013610c396104e2866111a790919063ffffffff16565b6111df90919063ffffffff16565b6111df90919063ffffffff16565b600381905550610cb1565b6002600c541415610cb057610ca96305f5e100610c9b602f610c8d6104e2866111a790919063ffffffff16565b6111df90919063ffffffff16565b6111df90919063ffffffff16565b6003819055505b5b5b50565b600160009054906101000a900473ffffffffffffffffffffffffffffffffffffffff1681565b600080610ce884846111f5565b610cf0611222565b600b60008573ffffffffffffffffffffffffffffffffffffffff1673ffffffffffffffffffffffffffffffffffffffff168152602001908152602001600020549150610d458383610dce90919063ffffffff16565b90506009548110158015610d5b5750600a548111155b1515610d6657600080fd5b80600b60008673ffffffffffffffffffffffffffffffffffffffff1673ffffffffffffffffffffffffffffffffffffffff1681526020019081526020016000208190555050505050565b6000610dc7600354836111a790919063ffffffff16565b9050919050565b60008183019050828110151515610de157fe5b80905092915050565b610df4828261132a565b5050565b5050565b600260009054906101000a900473ffffffffffffffffffffffffffffffffffffffff1673ffffffffffffffffffffffffffffffffffffffff166108fc349081150290604051600060405180830381858888f19350505050158015610e64573d6000803e3d6000fd5b50565b5050565b600080600160009054906101000a900473ffffffffffffffffffffffffffffffffffffffff1691508173ffffffffffffffffffffffffffffffffffffffff16637d64bcb46040518163ffffffff167c0100000000000000000000000000000000000000000000000000000000028152600401602060405180830381600087803b158015610ef757600080fd5b505af1158015610f0b573d6000803e3d6000fd5b505050506040513d6020811015610f2157600080fd5b810190808051906020019092919050505050600160009054906101000a900473ffffffffffffffffffffffffffffffffffffffff1690508073ffffffffffffffffffffffffffffffffffffffff16633f4ba83a6040518163ffffffff167c0100000000000000000000000000000000000000000000000000000000028152600401600060405180830381600087803b158015610fbc57600080fd5b505af1158015610fd0573d6000803e3d6000fd5b505050508073ffffffffffffffffffffffffffffffffffffffff1663f2fde38b600260009054906101000a900473ffffffffffffffffffffffffffffffffffffffff166040518263ffffffff167c0100000000000000000000000000000000000000000000000000000000028152600401808273ffffffffffffffffffffffffffffffffffffffff1673ffffffffffffffffffffffffffffffffffffffff168152602001915050600060405180830381600087803b15801561109157600080fd5b505af11580156110a5573d6000803e3d6000fd5b505050505050565b600073ffffffffffffffffffffffffffffffffffffffff168173ffffffffffffffffffffffffffffffffffffffff16141515156110e957600080fd5b8073ffffffffffffffffffffffffffffffffffffffff166000809054906101000a900473ffffffffffffffffffffffffffffffffffffffff1673ffffffffffffffffffffffffffffffffffffffff167f8be0079c531659141344cd1fd0a4f28419497f9722a3daafe3b4186f6b6457e060405160405180910390a3806000806101000a81548173ffffffffffffffffffffffffffffffffffffffff021916908373ffffffffffffffffffffffffffffffffffffffff16021790555050565b6000808314156111ba57600090506111d9565b81830290508183828115156111cb57fe5b041415156111d557fe5b8090505b92915050565b600081838115156111ec57fe5b04905092915050565b600654421015801561120957506007544211155b151561121457600080fd5b61121e8282611439565b5050565b600061122c610940565b90506000600c541415611281576112766305f5e100611268600361125a60fa866111a790919063ffffffff16565b6111df90919063ffffffff16565b6111df90919063ffffffff16565b600381905550611327565b6001600c5414156112d5576112ca6305f5e1006112bc60136112ae6104e2866111a790919063ffffffff16565b6111df90919063ffffffff16565b6111df90919063ffffffff16565b600381905550611326565b6002600c5414156113255761131e6305f5e100611310602f6113026104e2866111a790919063ffffffff16565b6111df90919063ffffffff16565b6111df90919063ffffffff16565b6003819055505b5b5b50565b600160009054906101000a900473ffffffffffffffffffffffffffffffffffffffff1673ffffffffffffffffffffffffffffffffffffffff166340c10f1983836040518363ffffffff167c0100000000000000000000000000000000000000000000000000000000028152600401808373ffffffffffffffffffffffffffffffffffffffff1673ffffffffffffffffffffffffffffffffffffffff16815260200182815260200192505050602060405180830381600087803b1580156113ef57600080fd5b505af1158015611403573d6000803e3d6000fd5b505050506040513d602081101561141957600080fd5b8101908080519060200190929190505050151561143557600080fd5b5050565b611443828261146c565b60055461145b82600454610dce90919063ffffffff16565b1115151561146857600080fd5b5050565b600073ffffffffffffffffffffffffffffffffffffffff168273ffffffffffffffffffffffffffffffffffffffff16141515156114a857600080fd5b600081141515156114b857600080fd5b50505600a165627a7a723058206921b62cb81d6a0be25c1c7877b44fa811764999c752394fe8edd1f0cc94c2fb0029",
  "source": "//// SPDX-License-Identifier: MIT\r\npragma solidity >=0.4.25;\r\n\r\nimport \"./ERC20/ERC20.sol\";\r\nimport \"./ERC20/PausableToken.sol\";\r\nimport \"./ERC20/MintableToken.sol\";\r\nimport \"./crowdsale/Crowdsale.sol\";\r\nimport \"./crowdsale/emission/MintedCrowdsale.sol\";\r\nimport \"./crowdsale/validation/CappedCrowdsale.sol\";\r\nimport \"./crowdsale/validation/TimedCrowdsale.sol\";\r\nimport \"./crowdsale/distribution/FinalizableCrowdsale.sol\";\r\nimport \"./math/SafeMath.sol\";\r\nimport \"@chainlink/contracts/src/v0.4/interfaces/AggregatorV3Interface.sol\";\r\n\r\ncontract VotonTokenCrowdsale is Crowdsale, MintedCrowdsale, CappedCrowdsale, TimedCrowdsale, FinalizableCrowdsale {\r\n    using SafeMath for uint256;\r\n\r\n    //Min investor contribution - $20\r\n    uint256 public investorMinCap = 50000000000000000; //0.05 BNB\r\n    //Max investor contribution - $1000\r\n    uint256 public investorHardCap = 2000000000000000000; //2 BNB\r\n    mapping(address => uint256) public contributions;\r\n\r\n    //Crowdsale Stages:\r\n    uint256 public stage = 0;\r\n\r\n    //priceAggregator contract address\r\n    AggregatorV3Interface internal priceFeed;\r\n\r\n\r\n    constructor(\r\n        uint256 _rate,\r\n        address _wallet,\r\n        ERC20 _token,\r\n        uint256 _cap,\r\n        uint256 _openingTime,\r\n        uint256 _closingTime\r\n    )\r\n    Crowdsale(_rate, _wallet, _token)\r\n    CappedCrowdsale(_cap)\r\n    TimedCrowdsale(_openingTime, _closingTime)\r\n    public {\r\n        priceFeed = AggregatorV3Interface(\r\n            0x2514895c72f50D8bd4B4F9b1110F0D6bD2c97526\r\n        );\r\n    }\r\n\r\n    function getUserContribution(address _beneficiary) public view returns (uint256) {\r\n        return contributions[_beneficiary];\r\n    }\r\n\r\n    function setCrowdsaleStage(uint256 _stage) public onlyOwner {\r\n        if (_stage == 0) {\r\n            stage = 0;\r\n        } else if (_stage == 1) {\r\n            stage = 1;\r\n        } else if (_stage == 2) {\r\n            stage = 2;\r\n        }\r\n    }\r\n\r\n    function _preValidatePurchase (address _beneficiary, uint256 _weiAmount) internal {\r\n        super._preValidatePurchase(_beneficiary, _weiAmount);\r\n        setLatestPriceInternally();\r\n        uint256 _existingContributions = contributions[_beneficiary];\r\n        uint256 _newContribution = _existingContributions.add(_weiAmount);\r\n        require(_newContribution >= investorMinCap && _newContribution <= investorHardCap);\r\n        contributions[_beneficiary] = _newContribution;\r\n    }\r\n\r\n    //prevent minting after the crowdsale has been finalized (end time reached)\r\n    function finalization() internal {\r\n        MintableToken _mintableToken = MintableToken(token);\r\n        _mintableToken.finishMinting();\r\n        //unpause the token\r\n        PausableToken _pausableToken = PausableToken(token);\r\n        _pausableToken.unpause();\r\n        _pausableToken.transferOwnership(wallet);\r\n    }\r\n\r\n    /**\r\n     * Returns the latest price\r\n     */\r\n    function getLatestPrice() public view returns (uint256) {\r\n        (\r\n            uint80 roundID,\r\n            int price,\r\n            uint startedAt,\r\n            uint timeStamp,\r\n            uint80 answeredInRound\r\n        ) = priceFeed.latestRoundData();\r\n        return uint256(price);\r\n    }\r\n\r\n\r\n\r\n    \r\n    function setLatestPriceInternally() internal {\r\n        uint256 currentBNBPrice = getLatestPrice();\r\n\r\n        if(stage == 0){\r\n            // Round1: US$0.012\r\n            rate = currentBNBPrice.mul(250).div(3).div(10 ** 8);\r\n        }\r\n        else if(stage == 1){\r\n            // Round2: US$0.0152\r\n            rate = currentBNBPrice.mul(1250).div(19).div(10 ** 8);\r\n        }\r\n        else if (stage == 2) {\r\n            // Round3: US$0.0376\r\n            rate = currentBNBPrice.mul(1250).div(47).div(10 ** 8);\r\n        }\r\n    }\r\n    function publiclySetLatestPrice() public {\r\n        uint256 currentBNBPrice = getLatestPrice();\r\n\r\n        if(stage == 0){\r\n            // Round1: US$0.012\r\n            rate = currentBNBPrice.mul(250).div(3).div(10 ** 8);\r\n        }\r\n        else if(stage == 1){\r\n            // Round2: US$0.0152\r\n            rate = currentBNBPrice.mul(1250).div(19).div(10 ** 8);\r\n        }\r\n        else if (stage == 2) {\r\n            // Round3: US$0.0376\r\n            rate = currentBNBPrice.mul(1250).div(47).div(10 ** 8);\r\n        }\r\n    }\r\n}",
  "sourcePath": "C:\\Users\\Volcano\\Desktop\\truffle\\CrowdsaleFinal\\contracts\\VotonTokenCrowdsale.sol",
  "compiler": {
    "name": "solc",
    "version": "0.4.25+commit.59dbf8f1.Emscripten.clang"
  },
  "schemaVersion": "2.0.2",
  "updatedAt": "2022-05-19T17:41:59.658Z"
}